:020000040800F2
:10000000901E0020C53300088505000841740008D3
:10001000870500088B0500088F0500080000000018
:100020000000000000000000000000009305000830
:10003000D9330008000000008F730008490500084C
:10004000DF330008DF330008DF330008DF33000848
:10005000DF330008DF330008DF330008DF33000838
:10006000DF330008DF330008DF330008DF33000828
:10007000DF330008DF330008DF330008DF33000818
:10008000DF330008DF330008DF330008DF33000808
:10009000DF330008DF330008DF330008DF330008F8
:1000A000DF330008DF330008DF330008DF330008E8
:1000B000DF330008DF330008DF330008DF330008D8
:1000C000DF330008DF330008DF330008DF330008C8
:1000D000DF330008F106000829070008610700085F
:1000E000DF330008DF330008DF330008DF330008A8
:1000F000DF330008DF330008DF330008DF33000898
:10010000DF330008DF330008DF330008DF33000887
:10011000DF330008DF330008DF330008DF33000877
:10012000DF330008DF330008DF330008DF33000867
:10013000DF330008DF330008DF330008DF33000857
:10014000DF330008DF330008DF330008DF33000847
:10015000DF330008DF330008DF330008DF33000837
:10016000DF330008DF330008DF330008DF33000827
:10017000DF330008DF330008DF330008DF33000817
:10018000DF330008DF33000800F002F800F065F804
:100190000AA090E8000C82448344AAF10107DA45E2
:1001A00001D100F05AF8AFF2090EBAE80F0013F0CF
:1001B000010F18BFFB1A43F001031847D4EA0000EF
:1001C000F4EA00000A444FF0000C10F8013B13F071
:1001D000070408BF10F8014B1D1108BF10F8015BA0
:1001E000641E05D010F8016B641E01F8016BF9D193
:1001F00013F0080F1EBF10F8014BAD1C0C1B09D1EA
:100200006D1E58BF01F801CBFAD505E014F8016B5B
:1002100001F8016B6D1EF9D59142D6D370470000ED
:100220000023002400250026103A28BF78C1FBD8FF
:10023000520728BF30C148BF0B6070471FB50DF093
:100240004DFB0DF011FB0400002000210DF030FBF0
:10025000401C60601FBD10B510BD0DF0E0FA1146E6
:10026000FFF7ECFF00F054F80DF010FB03B4FFF7BC
:10027000F2FF03BC0DF014FB10B5044600F004F9C6
:1002800010BD1CB514200A214FF400630022CDE9F3
:100290000010AFF21B0105A006F0D7FB044614B115
:1002A000204606F086FB00201CBD0000696E6974C4
:1002B0000000000004460D4619A005F010FA214682
:1002C00021A005F00CFA294624A005F008FA00BF89
:1002D000FEE710B500F040F905F031FA03F092F8AE
:1002E00005F0BBFF06F02AFF2149224805F0B2FBCA
:1002F00006F02EF9FFF7C5FF08F047FD1EA008F035
:10030000CAF806F027FF03F09BFA06F03DF910BD8E
:1003100010B507F025F8FFF7DCFF002010BD000046
:100320000A0D2057726F6E6720706172616D65747F
:1003300065722076616C75652064657465637465AB
:1003400064206F6E0D0A00002020202020202066EF
:10035000696C65202025730D0A00000020202020F4
:100360002020206C696E65202025640D0A000000A5
:1003700000000220901E002075617274330000009E
:100380001CB50121502001F0A1FD01208DF80400D1
:1003900000208DF806008DF8070003208DF8050079
:1003A000082000906946444800F0F6FD10200090B7
:1003B0006946414800F0F0FD4FF400700090694636
:1003C0003E4800F0E9FD1CBD10B50446012C04D0E8
:1003D000022C07D0032C10D109E00821364801F087
:1003E00002F80BE01021344800F0FDFF06E04FF466
:1003F0000071324800F0F7FF00E000BF00BF10BD01
:1004000010B50446012C04D0022C07D0032C10D1C7
:1004100009E00821284801F017F80BE010212648D0
:1004200001F012F806E04FF40071244801F00CF8D6
:1004300000E000BF00BF10BDFFF7A2FF23E00120D6
:10044000FFF7DEFF0220FFF7BFFF0320FFF7BCFF2F
:10045000642006F0BAFB0220FFF7D2FF0120FFF76D
:10046000B3FF0320FFF7B0FF642006F0AEFB0320CC
:10047000FFF7C6FF0120FFF7A7FF0220FFF7A4FF49
:10048000642006F0A2FBDAE71FB5052014214FF423
:1004900000720B4BCDE90032CDE902100023094A6E
:1004A00009A10A4806F036FA044614B9074806F0CE
:1004B00080FA002004B010BD001002400018024075
:1004C000CC010020390400086C656400CC030020D6
:1004D00010B500214FF0006000F047FC4FF4A06021
:1004E00000F0D6FB10BD7FB5684601F0D3FB642158
:1004F0000198B0FBF1F4E4082146B1F1807F00D30C
:100500001DE021F07F40401E4FF0E0225061501767
:100510000F22002807DA13071E0E164B00F00F05F6
:100520002D1F5E5503E013071D0E134B1D5400BF16
:1005300000204FF0E02290610720106100BF6FF0B3
:10054000040000F057FC7FBD10B504F0E3FC02F09E
:1005500068FF04F0EEFC10BD10B5FFF7B9FFFFF720
:10056000C2FF00F084F900F07DFA04A005F02CF938
:1005700010BD000018ED00E000E400E07561727449
:1005800033000000704700BFFEE700BFFEE700BF7A
:10059000FEE770477FB505460C4625B94322D6498C
:1005A000D6A005F078F924B94422D349D8A005F0A3
:1005B00072F9EE6B2068B0F5165F03D14FF4165058
:1005C000009006E02068B0F5E13F02D14FF4E13041
:1005D0000090207900F00F00082802D10020ADF82B
:1005E00004002079C0F3011018B90020ADF806000E
:1005F00007E02079C0F30110012802D14003ADF8D3
:1006000006000020ADF80800ADF80C000C20ADF895
:100610000A006946306801F0E0FF0121306802F00D
:1006200025F9002004B070BD2DE9F04105460E46C5
:10063000174625B96422BA49B0A005F02CF9EC6B35
:10064000102E13D0112E25D194F9040000F01F02B2
:1006500001219140B34A430942F8231000BF002210
:1006600040F22551206802F090FC13E094F9040058
:1006700000F01F02012191404209920002F1E022A4
:10068000C2F8001100BF012240F22551206802F09B
:100690007CFC00BF00BF0020BDE8F08170B50446BF
:1006A0000E4624B97E22A04994A005F0F4F8E56B2B
:1006B00000BF2868008800F080000028F9D0286872
:1006C0008680012070BD70B5044624B98C229749FC
:1006D0008AA005F0E0F8E56B4FF0FF362868008847
:1006E00000F0200010B128688088C6B2304670BD86
:1006F00010B58F4C04F00EFC40F22551206802F03A
:1007000072FD18B101218B4807F0D4F940F226613F
:10071000206802F068FD20B140F22661206802F0F6
:10072000F0FD04F006FC10BD10B5834C04F0F2FBA4
:1007300040F22551206802F056FD18B101217F4892
:1007400007F0B8F940F22661206802F04CFD20B1B4
:1007500040F22661206802F0D4FD04F0EAFB10BDEF
:1007600010B5774C04F0D6FB40F22551206802F01A
:100770003AFD18B10121734807F09CF940F2266157
:10078000206802F030FD20B140F22661206802F0BE
:10079000B8FD04F0CEFB10BD10B50121022001F020
:1007A00095FB0121102001F080FC0121084601F099
:1007B0008DFB0121480401F04FFC0121082001F0CC
:1007C00085FB0121880401F047FC10BD1CB5022007
:1007D0008DF8040000208DF8060001208DF8070038
:1007E00000208DF80500C02000906946564800F0B2
:1007F000D3FB07220621544800F00BFF07221146C5
:10080000514800F006FF0C20009069464F4800F068
:10081000C3FB072202214D4800F0FBFE0722032103
:100820004A4800F0F6FE4FF4407000906946484890
:1008300000F0B2FB07220821454800F0EAFE07223B
:100840000921434800F0E5FE1CBD38B50446207977
:100850008DF8000003208DF8010000208DF80200C3
:1008600001208DF80300684600F02DFA38BD1CB554
:10087000384903C9CDE90001FFF78EFFFFF7A6FF56
:100880002B4C35482B4908640846DDE90012C0E9C5
:1008900011122046FFF7D9FF234640F203122FA181
:1008A000244807F08CF8244C2B4824490864084657
:1008B000DDE90012C0E911122046FFF7C6FF23460A
:1008C00040F2031227A11D4807F079F81C4C22487A
:1008D0001C4908640846DDE90012C0E911122046EF
:1008E000FFF7B3FF234640F2031220A1154807F09B
:1008F00066F800201CBD0000FCD800087365726912
:10090000616C20213D2052545F4E554C4C0000003C
:1009100063666720213D2052545F4E554C4C0000C9
:100920000CD9000880E100E01AD9000825D9000898
:10093000000000204C04002008000020A00400203B
:1009400010000020F40400200004024000000240D7
:10095000000C024030D90008E8D8000875617274B4
:1009600031000000756172743200000075617274AC
:10097000330000000146362903D23E4A02EB011043
:1009800000E0002070472DE9F04107460D4616466D
:10099000E8B2FFF7EFFF04460CB9BDE8F0812EB9CD
:1009A000A28991B2A06800F04FFD04E0A28991B243
:1009B000A06800F018FD00BFEFE72DE9F041074601
:1009C0000D460026E8B2FFF7D5FF044614B93046BD
:1009D000BDE8F081A28991B2A06800F0CEFB08B911
:1009E000002600E001263046F2E72DE9FC410746EB
:1009F0000E461446F0B2FFF7BDFF05460DB9BDE83F
:100A0000FC810121686801F061FAE868009000202B
:100A10008DF8060003208DF8050034B901208DF80B
:100A2000040000208DF8070016E0012C05D10020FD
:100A30008DF804008DF807000EE0022C06D100208E
:100A40008DF8040001208DF8070005E000208DF8E6
:100A5000040002208DF807006946A86800F09CFA9F
:100A600000BFCCE710B50022034904A006F056FDF4
:100A7000002010BD38D9000898DC000870696E00AD
:100A80000CB50020019000907648006840F480305A
:100A90007449086000BF7348006800F4003000909B
:100AA0000198401C0190009818B90198B0F5A06F0A
:100AB000F1D16C48006800F4003010B101200090C2
:100AC00001E0002000900098012846D165484030A0
:100AD000006840F080506349403108606248006817
:100AE00040F48040604908605E48083000685D4915
:100AF000083108600846006840F400400860084675
:100B0000006840F4A05008605848091F0860081F9A
:100B1000006840F08070091F086000BF51480068FD
:100B200000F000700028F9D040F2056050490860DC
:100B30004C480830006820F003004A49083108603A
:100B40000846006840F00200086000BF45480830D1
:100B5000006800F00C000828F8D10CBD10B545481D
:100B6000006840F47000434908603E48006840F067
:100B700001003C49086000203A49083108603948C2
:100B800000683D490840374908603C48091D086035
:100B9000081F006820F48020091F086000203149E8
:100BA0000C310860FFF76CFF4FF00060314980396D
:100BB000086010BD70B5002000220223002402212D
:100BC000284D08352D6805F00C0020B1042806D00A
:100BD000082834D107E02A4D2A4E356033E02A4DEB
:100BE000284E35602FE01F4D2D1D2D68C5F3805414
:100BF0001C4D2D1D2D6805F03F0154B1224DB5FB54
:100C0000F1F5184E361D3668C6F3881605FB06F258
:100C100009E01B4DB5FBF1F5124E361D3668C6F3E3
:100C2000881605FB06F20F4D2D1D2D68C5F30145F5
:100C30006D1C6B00B2FBF3F5124E356003E0104DF6
:100C4000104E356000BF00BF064D08352D68C5F356
:100C500003150E4E705D0B4D2D68C540094E356075
:100C600070BD00000038024000700040085440078A
:100C7000003C024088ED00E0FFFFF6FE103000244B
:100C80000024F4001800002000127A001C0000204C
:100C900010B50446B4F5E06F0BD0B4F5C06F08D0C2
:100CA000B4F5A06F05D0B4F5806F02D0B4F5407FE5
:100CB00000D103E073215FA0FFF7FCFA69482043ED
:100CC0006949086010BD2DE9F04104460025002760
:100CD0000F26E07810B1E078012800D103E08721E9
:100CE00054A0FFF7E7FA6078102800DA03E08821C3
:100CF00050A0FFF7DFFAA078102800DA03E089217E
:100D00004CA0FFF7D7FAE07818B35748006800F412
:100D1000E060C0F5E060C0F30725C5F10400C7B28C
:100D20002E416078B840C5B2A0783040054328070E
:100D3000050E4E4821784554207800F01F0101200F
:100D4000884021784911890001F1E021C1F80001B2
:100D500009E0207800F01F010120884044492278F2
:100D6000521141F82200BDE8F08170B504460D46ED
:100D7000B4F1005F02D0B4F1006F00D103E0B12103
:100D80002CA0FFF797FA3B48854200D203E0B2213E
:100D900028A0FFF78FFA384905EA010020433249BD
:100DA000091F086070BD70B504460D46102C03D0B5
:100DB000042C01D0022C00D103E0C4211DA0FFF7B8
:100DC00079FA0DB1012D00D103E0C52119A0FFF77B
:100DD00071FA3DB12448001D006820432249091DD5
:100DE000086006E02048001D0068A0431E49091D58
:100DF000086070BD10B50446042C01D0601D00B918
:100E000003E0DC210BA0FFF755FA042C08D14FF0CA
:100E1000E020006940F004004FF0E021086107E0A5
:100E20004FF0E020006920F004004FF0E02108615D
:100E300010BD00004C69627261726965735C535445
:100E40004D3332463478785F5374645065726970FC
:100E5000685F4472697665725C7372635C6D697316
:100E6000632E63000000FA050CED00E000E400E0F2
:100E700080E100E0FFFF0F0080FFFF1F10B5044678
:100E8000FA48844217D0FA48844214D0F948844280
:100E900011D0F94884420ED0F84884420BD0F8486B
:100EA000844208D0F748844205D0F748844202D0F3
:100EB000F648844200D103E07B21F5A0FFF7FAF960
:100EC000EA48844208D10121084601F017F90021BF
:100ED000012001F013F95EE0E548844208D10121C8
:100EE000022001F00BF90021022001F007F952E085
:100EF000E048844208D10121042001F0FFF80021DC
:100F0000042001F0FBF846E0DB48844208D10121CF
:100F1000082001F0F3F80021082001F0EFF83AE092
:100F2000D648844208D10121102001F0E7F80021C1
:100F3000102001F0E3F82EE0D148844208D10121CD
:100F4000202001F0DBF80021202001F0D7F822E07A
:100F5000CC48844208D10121402001F0CFF8002183
:100F6000402001F0CBF816E0C748844208D10121A7
:100F7000802001F0C3F80021802001F0BFF80AE0D2
:100F8000C248844207D10121801501F0B7F8002141
:100F9000A01501F0B3F810BD2DE9F04104460D464F
:100FA00000260027B046B148844217D0B04884429A
:100FB00014D0B048844211D0AF4884420ED0AF481C
:100FC00084420BD0AE48844208D0AE48844205D05B
:100FD000AD48844202D0AD48844200D103E0BB2139
:100FE000ABA0FFF767F9002010B9286800B103E053
:100FF000BC21A7A0FFF75EF9287940B12879012824
:1010000005D02879022802D02879032800D103E0EE
:10101000BD219FA0FFF74EF9E87928B1E8790128B2
:1010200002D0E879022800D103E0BE2198A0FFF7A2
:1010300041F9002657E0012000FA06F7286800EA87
:101040000708B8454ED120687200032191408843BB
:101050002060287971008840216808432060287941
:10106000012802D02879022830D1687940B1687906
:10107000012805D06879022802D06879032800D1B8
:1010800003E0D02182A0FFF715F9A06872000321C8
:1010900091408843A060687971008840A168084346
:1010A000A060A87910B1A879012800D103E0D72168
:1010B00077A0FFF7FFF861680120B04081436160CD
:1010C0006068A979B14089B208436060E068720045
:1010D000032191408843E060E87971008840E1682D
:1010E0000843E060761C102EA5D3BDE8F0814FF6D2
:1010F000FF7101600021017141718171C1717047FF
:1011000038B504460D464FF480300090574884426D
:1011100017D05748844214D05648844211D05648BC
:1011200084420ED0554884420BD05548844208D0A2
:101130005448844205D05448844202D053488442E3
:1011400000D104E04FF4827151A0FFF7B3F8002002
:1011500008B905B104E040F205114DA0FFF7AAF867
:101160000098284300900098E061E5610098E061F4
:10117000E0690090E069009038BD70B505460C4606
:1011800000263A48854217D03948854214D039485C
:10119000854211D0384885420ED0384885420BD060
:1011A0003748854208D03748854205D036488542C1
:1011B00002D03648854200D104E04FF4987134A043
:1011C000FFF778F8012C25D0022C23D0042C21D055
:1011D000082C1FD0102C1DD0202C1BD0402C19D037
:1011E000802C17D0B4F5807F14D0B4F5007F11D0D7
:1011F000B4F5806F0ED0B4F5006F0BD0B4F5805FFE
:1012000008D0B4F5005F05D0B4F5804F02D0B4F536
:10121000004F00D104E040F231111DA0FFF74AF861
:101220002869204008B1012600E00026304670BD44
:1012300010B504460D48844217D00D48844214D09E
:101240000C48844211D00C4884420ED00B48844292
:101250000BD00B48844208D00A48844205D00A4883
:10126000844202D00948844230D135E00000024077
:101270000004024000080240000C0240001002403E
:101280000014024000180240001C024000200240EE
:101290004C69627261726965735C53544D333246B6
:1012A0003478785F5374645065726970685F447213
:1012B000697665725C7372635C73746D3332663425
:1012C00078785F6770696F2E630000004FF4A37138
:1012D000AFF24400FEF7EEFF206980B210BD70B59A
:1012E00005460C460026FE48854217D0FD4885423B
:1012F00014D0FD48854211D0FC4885420ED0FC48F0
:1013000085420BD0FB48854208D0FB48854205D07A
:10131000FA48854202D0FA48854200D105E040F201
:101320005711AFF29400FEF7C5FF012C25D0022C17
:1013300023D0042C21D0082C1FD0102C1DD0202C01
:101340001BD0402C19D0802C17D0B4F5807F14D03E
:10135000B4F5007F11D0B4F5806F0ED0B4F5006FF6
:101360000BD0B4F5805F08D0B4F5005F05D0B4F5BC
:10137000804F02D0B4F5004F00D105E04FF4AC71BE
:10138000AFF2F400FEF796FF6869204008B101262D
:1013900000E00026304670BD10B50446D0488442B7
:1013A00017D0D048844214D0CF48844211D0CF48BF
:1013B00084420ED0CE4884420BD0CE48844208D01E
:1013C000CD48844205D0CD48844202D0CC488442E6
:1013D00000D105E040F26D11AFF24C10FEF76AFF4C
:1013E000606980B210BD70B504460D46BC488442A9
:1013F00017D0BC48844214D0BB48844211D0BB48AB
:1014000084420ED0BA4884420BD0BA48844208D0F5
:10141000B948844205D0B948844202D0B8488442D1
:1014200000D105E040F27F11AFF29C10FEF742FFC1
:10143000002008B905B105E04FF4C071AFF2B0105B
:10144000FEF738FF258370BD70B504460D46A448ED
:10145000844217D0A348844214D0A348844211D0B8
:10146000A24884420ED0A24884420BD0A1488442B4
:1014700008D0A148844205D0A048844202D0A048A8
:10148000844200D105E04FF4C971AFF2FC10FEF7C1
:1014900011FF002008B905B105E040F29311AFF249
:1014A0001020FEF707FF658370BD70B505460C463A
:1014B00016468B48854217D08A48854214D08A4800
:1014C000854211D0894885420ED0894885420BD08B
:1014D0008848854208D08848854205D0874885429B
:1014E00002D08748854200D105E04FF4D371AFF2B6
:1014F0006020FEF7DFFE012C25D0022C23D0042C27
:1015000021D0082C1FD0102C1DD0202C1BD0402CFB
:1015100019D0802C17D0B4F5807F14D0B4F5007F9B
:1015200011D0B4F5806F0ED0B4F5006F0BD0B4F5C8
:10153000805F08D0B4F5005F05D0B4F5804F02D0CD
:10154000B4F5004F00D105E040F2A711AFF2C02082
:10155000FEF7B0FE0EB1012E00D105E04FF4D471BC
:10156000AFF2D420FEF7A6FE0EB12C8300E06C8310
:1015700070BD70B504460D465948844217D059488D
:10158000844214D05848844211D0584884420ED026
:10159000574884420BD05748844208D0564884426A
:1015A00005D05648844202D05548844200D105E017
:1015B00040F2BD11AFF22830FEF77CFE656170BDD0
:1015C00070B504460D464648844217D045488442CB
:1015D00014D04548844211D0444884420ED0444837
:1015E00084420BD04348844208D04348844205D00B
:1015F0004248844202D04248844200D105E040F291
:10160000CB11AFF27430FEF755FE6069684060613F
:1016100070BD2DE9F04106460D4614460027B84638
:101620002F48864217D02F48864214D02E48864233
:1016300011D02E4886420ED02D4886420BD02D4820
:10164000864208D02C48864205D02C48864202D0DB
:101650002B48864200D105E040F21721AFF2D0308E
:10166000FEF728FEEDB1012D1BD0022D19D0032D60
:1016700017D0042D15D0052D13D0062D11D0072D10
:101680000FD0082D0DD0092D0BD00A2D09D00B2D10
:1016900007D00C2D05D00D2D03D00E2D01D00F2D10
:1016A00000D105E04FF40671AFF21C40FEF702FED8
:1016B00044B3092C45D02CB324B31CB314B3012C70
:1016C0003FD03ED0022C3CD03BD03AD0032C38D077
:1016D000042C36D035D034D0052C32D031D012E0A5
:1016E000000002400004024000080240000C0240DA
:1016F000001002400014024000180240001C02408A
:10170000002002401DE0092C1BD0062C19D0092C0A
:1017100017D0072C15D014D013D0082C11D010D00E
:101720000FD0092C0DD00CD00A2C0AD009D00B2CCC
:1017300007D00C2C05D004D003D00D2C01D00F2CD9
:1017400000D105E040F21921AFF2BC40FEF7B2FD36
:101750006807C00E04FA00F7E91006F1200050F8FF
:1017600021006907CA0E0F2191408843EA1006F153
:10177000200141F82200E91006F1200050F8210074
:1017800040EA0708E91006F1200040F82180BDE892
:10179000F0810000F948006840F00100F749086056
:1017A0000020F64908310860F4480068F449084010
:1017B000F2490860F348091D0860081F006820F41A
:1017C0008020091F08600020EC490C310860704738
:1017D00010B504461CB1012C01D0052C00D103E04A
:1017E000F021E9A0FEF766FD0020E449891C08709D
:1017F0000846047010BD2DE9F0410446002500267E
:101800000027212C17D0312C15D0392C13D0412C86
:1018100011D0612C0FD0792C0DD07A2C0BD07B2CD1
:1018200009D07C2C07D07D2C05D07E2C03D07F2CBA
:1018300001D03B2C00D104E040F29C61D2A0FEF725
:1018400039FD6511012D02D1CC48066808E0022D52
:1018500003D1CA487030066802E0C8487430066890
:1018600004F01F050120A840304008B1012700E026
:1018700000273846BDE8F08138B5002000900024EC
:10188000002500BF3120FFF7B6FF05460098401C39
:1018900000900098B0F5A06F01D0002DF2D031205B
:1018A000FFF7A9FF08B1012400E00024204638BD5D
:1018B00070B5044600251F2C00DC04E04FF4947141
:1018C000B1A0FEF7F7FCAD48056825F0F80545EA3C
:1018D000C405056070BD10B504460CB1012C00D1E3
:1018E00004E040F24B11A8A0FEF7E4FCB548046008
:1018F00010BD10B504461CB1012C01D0042C00D140
:1019000004E04FF4B271A0A0FEF7D4FC00209B4984
:10191000703108700870012C02D0042C0AD104E048
:10192000012096497031087005E005209349703117
:10193000087000E000BF00BF10BD10B504460CB138
:10194000012C00D104E04FF4C6718FA0FEF7B2FC69
:101950009D48046010BD2DE9F04105460F4616462E
:101960001C46DDF8188015B1B5F5800F00D104E0F4
:1019700040F2B71184A0FEF79DFC3F2F00D804E091
:101980004FF4DC7180A0FEF795FCC02E03D3B6F5B2
:10199000D87F00D804E040F2B9117BA0FEF78AFCA2
:1019A000022C05D0042C03D0062C01D0082C00D129
:1019B00004E04FF4DD7174A0FEF77CFCB8F1040F75
:1019C00003D3B8F10F0F00D804E040F2BB116EA0B2
:1019D000FEF770FC47EA86100121C1EB540140EA92
:1019E0000140284340EA08606449091D0860BDE8D9
:1019F000F08110B504460CB1012C00D104E04FF485
:101A0000E77161A0FEF756FC6E48046610BD70B524
:101A100005460C46C02D03D3B5F5D87F00D804E0A9
:101A20004FF4F47158A0FEF745FC022C02D3072CAA
:101A300000D804E040F2E91153A0FEF73BFCA801F6
:101A400040EA04704D498431086070BD10B5044609
:101A50000CB1012C00D104E040F2F7114AA0FEF7CE
:101A600029FC5848846610BD10B504460CB1012C01
:101A700000D104E040F2092143A0FEF71BFC5148CD
:101A8000C46410BD70B505460C46002645B1B5F5D9
:101A9000001F05D0B5F5800F02D0B5F5C00F00D1FD
:101AA00004E04FF4097138A0FEF704FC5CB1B4F116
:101AB000806F08D0B4F1A06F05D0B4F1C06F02D030
:101AC000B4F1E06F00D104E040F225212EA0FEF732
:101AD000F1FB2A480830066826F0EC6645EA040067
:101AE000064326480830066070BD70B505460C46B2
:101AF000002645B1B5F1804F05D0B5F1004F02D0B9
:101B0000B5F1404F00D104E040F24A211EA0FEF79B
:101B1000D1FB5CB1B4F1005F08D0B4F1205F05D017
:101B2000B4F1405F02D0B4F1605F00D104E040F254
:101B30004B2115A0FEF7BEFB10480830066826F0C2
:101B4000784645EA040006430C480830066070BD3C
:101B500070B5044600251CB1012C01D0022C00D127
:101B600004E04FF42D7108A0FEF7A4FB03480830F1
:101B7000056825F003052543056070BD0038024067
:101B8000FFFFF6FE103000244C69627261726965D5
:101B9000735C53544D3332463478785F53746450D9
:101BA00065726970685F4472697665725C737263AE
:101BB0005C73746D3332663478785F7263632E635E
:101BC0000000000000004742800E4742F9480068CC
:101BD00000F00C00704770B5044600257CB1802CE5
:101BE0000DD0902C0BD0A02C09D0B02C07D0C02C3D
:101BF00005D0D02C03D0E02C01D0F02C00D105E092
:101C000040F2E921AFF28000FEF754FBE948056895
:101C100025F0F0052543056070BD70B5044600252C
:101C20005CB1B4F5805F08D0B4F5A05F05D0B4F521
:101C3000C05F02D0B4F5E05F00D105E040F20931A9
:101C4000AFF2BC00FEF736FBDA48056825F4E05534
:101C50002543056070BD70B5044600255CB1B4F540
:101C6000805F08D0B4F5A05F05D0B4F5C05F02D0A6
:101C7000B4F5E05F00D105E04FF44A71AFF2F8002F
:101C8000FEF718FBCB48056825F4604545EAC40516
:101C9000056070BDF0B50021002200240225002659
:101CA0000223C44F3F6807F00C0121B1042905D07D
:101CB000082937D105E0C04F076036E0BF4F076005
:101CC00033E0BC4F3F1F3F68C7F38056B94F3F1FFB
:101CD0003F6807F03F036EB1B84FB7FBF3F7DFF88B
:101CE000D4C2ACF1040CDCF800C0CCF3881C07FBB8
:101CF0000CF40CE0B04FB7FBF3F7DFF8B8C2ACF16F
:101D0000040CDCF800C0CCF3881C07FB0CF4A94FD2
:101D10003F1F3F68C7F301477F1C7D00B4FBF5F709
:101D2000076002E0A44F076000BF00BFA14F3F68FB
:101D300007F0F0010909A24F7A5C0768D7404760B5
:101D40009C4F3F6807F4E051890A9D4F7A5C4768D1
:101D5000D7408760974F3F6807F46041490B984F21
:101D60007A5C4768D740C760F0BD70B5044600256F
:101D7000B4F5807F5CD0B4F5007F59D0914884429F
:101D800056D09148844253D09048844250D09048D5
:101D900084424DD08F4884424AD08F48844247D0F5
:101DA0008E48844244D08E48844241D08D4884423B
:101DB0003ED08D4884423BD08C48844238D08C48F9
:101DC000844235D08B48844232D08B4884422FD015
:101DD0008A4884422CD08A48844229D08948844247
:101DE00026D08948844223D08848844220D088481D
:101DF00084421DD0874884421AD08748844217D035
:101E00008648844214D08648844211D08548844252
:101E10000ED0854884420BD08448844208D0844840
:101E2000844205D08348844202D08348844200D152
:101E300005E040F2D931AFF2B020FEF73BFA04F4EE
:101E40004070B0F5407F09D15A48056825F4F8156F
:101E50007A4904EA01000543564805605548683050
:101E60000068C4F30B01084352496831086070BD33
:101E700010B504460CB1012C00D105E040F2F73159
:101E8000AFF2FC20FEF716FA6D48046010BD10B5E5
:101E900004460CB1012C00D105E04FF48161AFF292
:101EA0001830FEF707FA6648001D046010BD10B533
:101EB00004460CB1012C00D105E040F21941AFF20B
:101EC0003830FEF7F7F95F48046010BD70B504467E
:101ED0000D465D48204008B904B105E04FF4886123
:101EE000AFF25C30FEF7E6F90DB1012D00D105E04F
:101EF00040F24241AFF27030FEF7DCF93DB12D48BF
:101F00002830006820432B492831086006E0294822
:101F100028300068A04327492831086070BD70B59B
:101F200004460D4624F0F10008B904B105E04FF471
:101F30008C61AFF2AC30FEF7BDF90DB1012D00D1CF
:101F400005E040F26141AFF2C030FEF7B3F93DB1B8
:101F500018482C300068204316492C31086006E0F0
:101F600014482C300068A04312492C31086070BD21
:101F700070B504460D4624F0010008B904B105E02F
:101F800040F27B41AFF20040FEF794F90DB1012D14
:101F900000D105E040F27C41AFF21440FEF78AF92F
:101FA0003DB10448303000682043024930310860B8
:101FB00051E04BE0083802400024F40000127A009F
:101FC0002C000020000302000003030000030400B3
:101FD00000030500000306000003070000030800DB
:101FE0000003090000030A0000030B0000030C00BB
:101FF00000030D0000030E0000030F00000310009B
:10200000000311000003120000031300000314007A
:10201000000315000003160000031700000318005A
:102020000003190000031A0000031B0000031C003A
:1020300000031D0000031E0000031F00FFFCFF0F34
:102040003C0E47425C01474200EE8B81F848006835
:10205000A043F749086070BD70B504460D46F548C9
:10206000204008B904B105E040F2AD41AFF2E840CC
:10207000FEF720F90DB1012D00D105E040F2AE418F
:10208000AFF2FC40FEF716F93DB1E94808300068B0
:102090002043E7490831086006E0E5480830006859
:1020A000A043E3490831086070BD70B504460D4691
:1020B000E148204008B904B105E040F2D541AFF253
:1020C0003850FEF7F7F80DB1012D00D105E040F2D0
:1020D000D641AFF24C50FEF7EDF83DB1D4480C308C
:1020E00000682043D2490C31086006E0D0480C302B
:1020F0000068A043CE490C31086070BD70B504463D
:102100000D46CE48204008B904B105E040F2FC413C
:10211000AFF28C50FEF7CEF80DB1012D00D105E0E5
:1021200040F2FD41AFF2A050FEF7C4F83DB1C04807
:10213000283800682043BE492839086006E0BC48BA
:1021400028380068A043BA492839086070BD70B5C6
:1021500004460D4624F0F10008B904B105E040F250
:102160001951AFF2DC50FEF7A5F80DB1012D00D1E9
:1021700005E040F21A51AFF2F050FEF79BF83DB186
:10218000AB48243800682043A9492439086006E098
:10219000A74824380068A043A5492439086070BDC9
:1021A00070B504460D4624F0010008B904B105E0FD
:1021B00040F23151AFF23060FEF77CF80DB1012DE5
:1021C00000D105E040F23251AFF24460FEF772F800
:1021D0003DB1974820380068204395492039086070
:1021E00006E0934820380068A043914920390860F0
:1021F00070BD70B504460D468E48204008B904B144
:1022000005E04FF4AC61AFF28060FEF753F80DB11A
:10221000012D00D105E040F26151AFF29460FEF76C
:1022200049F83DB182481838006820438049183980
:10223000086006E07E4818380068A0437C491839D9
:10224000086070BD70B504460D467D48204008B951
:1022500004B105E040F28451AFF2D460FEF72AF8F1
:102260000DB1012D00D105E040F28551AFF2E860DB
:10227000FEF720F83DB16E481438006820436C49E1
:102280001439086006E06A4814380068A0436849B9
:102290001439086070BD70B504460D466948204089
:1022A00008B904B105E040F2B251AFF22470FEF774
:1022B00001F80DB1012D00D105E040F2B351AFF2AC
:1022C0003870FDF7F7FF3DB15948183000682043DA
:1022D00057491831086006E0554818300068A04397
:1022E00053491831086070BD70B504460D4624F09E
:1022F000F10008B904B105E040F2D251AFF27870B4
:10230000FDF7D8FF0DB1012D00D105E040F2D3510A
:10231000AFF28C70FDF7CEFF3DB145481C30006830
:10232000204343491C31086006E041481C300068E6
:10233000A0433F491C31086070BD70B504460D468E
:1023400024F0010008B904B105E040F2ED51AFF20C
:10235000C870FDF7AFFF0DB1012D00D105E040F2CF
:10236000EE51AFF2DC70FDF7A5FF3DB130482030F3
:10237000006820432E492031086006E02C482030B8
:102380000068A0432A492031086070BD70B504463A
:102390000D462848204008B904B105E040F21F610D
:1023A000AFF61C00FDF786FF0DB1012D00D105E051
:1023B0004FF4C461AFF63000FDF77CFF3DB11C481F
:1023C0002830006820431A492831086006E0184880
:1023D00028300068A04316492831086070BD70B5E8
:1023E00004460D461448204008B904B105E040F207
:1023F0004761AFF66C00FDF75DFF0DB1012D00D117
:1024000005E04FF4C961AFF68000FDF753FF3DB121
:1024100007482C300068204305492C31086006E04D
:1024200003482C300068A04301492C31086070BD7E
:1024300038380240003601C9CCA0F8FF00EE9FDD1D
:10244000CCA6F8FF006E988170B504460D4604F0E6
:10245000C00008B904B105E040F27461AFF6D800DD
:10246000FDF728FF0DB1012D00D105E040F27561A7
:10247000AFF6EC00FDF71EFF2DB124480078204395
:102480002249087004E021480078A0431F490870E1
:1024900070BD1E486730006840F080701B4967318E
:1024A0000860704770B504460025012C0BD0022C43
:1024B00009D0042C07D0082C05D0102C03D0802C78
:1024C00001D0202C00D105E040F2DA61AFF64810CF
:1024D000FDF7F0FE0D48401E0068204008B10125C0
:1024E00000E00025284670BD10B5044604F0400009
:1024F00008B904B105E040F2F961AFF67410FDF7D8
:10250000D9FE0248401C047010BD00000D38024086
:1025100010B50446F84884420ED0F84884420BD0E7
:10252000F748844208D0F748844205D0F6488442F0
:1025300002D0F648844200D103E0B521F4A0FDF7B3
:10254000B9FEED48844208D101211020FFF77AFE40
:1025500000211020FFF776FE3EE0E848844209D1D2
:1025600001214804FFF745FE00214FF40030FFF73A
:1025700040FE31E0E248844209D101218804FFF79E
:1025800038FE00214FF48020FFF733FE24E0DD48C1
:10259000844209D10121C804FFF72BFE00214FF42A
:1025A0000020FFF726FE17E0D748844209D1012119
:1025B0000805FFF71EFE00214FF48010FFF719FEFB
:1025C0000AE0D248844207D101212020FFF73AFED9
:1025D00000212020FFF736FE10BD2DE9FF470546FC
:1025E0000C460026B14600BFB046C34885420ED017
:1025F000C24885420BD0C248854208D0C1488542B6
:1026000005D0C148854202D0C048854200D103E0D0
:10261000EB21BFA0FDF74EFE206820B1CB4920681A
:10262000884200D203E0EC21B9A0FDF743FEA08868
:1026300018B1A088B0F5805F00D103E0ED21B4A00F
:10264000FDF738FEE08858B1E088B0F5805F07D02C
:10265000E088B0F5005F03D0E088B0F5405F00D1BE
:1026600003E0EE21AAA0FDF725FE208938B12089DC
:10267000B0F5806F03D02089B0F5C06F00D103E0C2
:10268000EF21A3A0FDF716FE60894FF6F371084015
:1026900010B9608900B103E0F0219DA0FDF70AFEAA
:1026A000A08958B1A089B0F5807F07D0A089B0F586
:1026B000007F03D0A089B0F5407F00D103E0F12175
:1026C00093A0FDF7F7FDA08980B18B48854208D023
:1026D0008A48854205D08A48854202D08B48854287
:1026E00000D103E0F6218AA0FDF7E4FD2E8A26F44E
:1026F0004056E08806432E82AE8941F20C60864344
:10270000A08821890843618908430643AE81AE8AC7
:1027100026F44076A0890643AE826846FFF7BAFAEF
:102720007548854202D07948854202D1DDF80C9087
:1027300001E0DDF80890A88900F4004040B109EB01
:10274000C90000EB091021684900B0FBF1F707E070
:1027500009EBC90000EB091021688900B0FBF1F713
:102760006420B7FBF0F006013009642101FB10780A
:10277000A88900F4004040B1322000EBC800B0FB53
:10278000F1F000F00700064308E0322000EB0810EB
:102790006421B0FBF1F000F00F0006432E81BDE88C
:1027A000FF874FF41651016000218180C1800181B3
:1027B0000C21418100218181704770B505460C468E
:1027C00000264D48854208D04C48854205D04C48EB
:1027D000854202D04D48854200D104E04FF4B671E5
:1027E0004BA0FDF767FD208818B12088B0F5006F79
:1027F00000D104E040F26D1145A0FDF75BFD60885B
:1028000018B16088B0F5806F00D104E04FF4B77163
:102810003FA0FDF74FFDA08818B1A088B0F5007F5C
:1028200000D104E040F26F1139A0FDF743FDE088CC
:1028300018B1E088B0F5807F00D104E04FF4B871A2
:1028400033A0FDF737FD2E8A26F470662088618854
:102850000843A1880843E188084306432E8270BDDF
:102860000021018041808180C180704770B504469D
:102870000D46214884420ED0204884420BD0204887
:10288000844208D01F48844205D01F48844202D0A9
:102890001E48844200D104E040F29B111CA0FDF7C9
:1028A00009FD0DB1012D00D104E04FF4CE7118A047
:1028B000FDF700FD25B1A08940F40050A08104E09F
:1028C000A0894DF6FF710840A08170BD70B5044627
:1028D0000D46094884420ED0084884420BD008486F
:1028E000844208D00748844205D00748844202D079
:1028F000064884422CD131E00010014000440040E1
:1029000000480040004C00400050004000140140CE
:102910004C69627261726965735C53544D3332461F
:102920003478785F5374645065726970685F44727C
:10293000697665725C7372635C73746D333266348E
:1029400078785F75736172742E630000E1707200B5
:1029500040F2B511AFF24800FDF7ACFC208B00F45B
:102960007F402083208B2843208370BD70B50446B0
:102970000D46FE4884420ED0FD4884420BD0FD48EF
:10298000844208D0FC48844205D0FC48844202D0EE
:10299000FB48844200D105E04FF4E571AFF29000AE
:1029A000FDF788FC0DB1012D00D105E040F2CB11FF
:1029B000AFF2A400FDF77EFC25B1A08940F40040F1
:1029C000A08103E0A089C0F30E00A08170BD70B5A6
:1029D00004460D46E54884420ED0E54884420BD0BB
:1029E000E448844208D0E448844205D0E348844265
:1029F00002D0E348844200D105E04FF4F271AFF217
:102A0000F000FDF757FC0DB1012D00D105E040F2BB
:102A1000E511AFF20410FDF74DFC25B1A08A40F49A
:102A20000060A08204E0A08A4FF2FF710840A082FB
:102A300070BD70B504460D46CC4884420ED0CC48DB
:102A400084420BD0CB48844208D0CB48844205D086
:102A5000CA48844202D0CA48844200D105E040F20C
:102A60001D21AFF25410FDF725FCB5F5007F00DA0B
:102A700005E040F21E21AFF26810FDF71BFCC5F324
:102A80000800A08070BD10B50446B84884420ED03E
:102A9000B74884420BD0B748844208D0B648844235
:102AA00005D0B648844202D0B548844200D105E042
:102AB00040F22D21AFF2A810FDF7FCFBA088C0F377
:102AC000080010BD70B504460D46A84884420ED0DB
:102AD000A74884420BD0A748844208D0A648844225
:102AE00005D0A648844202D0A548844200D105E022
:102AF0004FF41871AFF2E810FDF7DCFB0F2D00DC8E
:102B000005E040F26121AFF2F810FDF7D3FB208A17
:102B10004FF6F07108402082208A2843208270BD41
:102B200070B504460D46914884420ED090488442C8
:102B30000BD09048844208D08F48844205D08F48FB
:102B4000844202D08E48844200D105E04FF41D71CA
:102B5000AFF24420FDF7AEFB0DB1012D00D105E031
:102B600040F27521AFF25820FDF7A4FB25B1A089F2
:102B700040F00200A08104E0A0894FF6FD710840FA
:102B8000A08170BD70B504460D46784884420ED0D1
:102B9000774884420BD07748844208D076488442F4
:102BA00005D07648844202D07548844200D105E0C1
:102BB00040F28F21AFF2A820FDF77CFB15B1B5F5EF
:102BC000006F00D105E04FF42471AFF2BC20FDF797
:102BD00071FBA0894FF2FF710840A081A0892843B2
:102BE000A08170BD70B504460D46604884420ED089
:102BF0005F4884420BD05F48844208D05E488442DC
:102C000005D05E48844202D05D48844200D105E090
:102C10004FF43571AFF20830FDF74CFB0DB1202DAC
:102C200000D105E040F2D521AFF21C30FDF742FBA8
:102C3000208A4FF6DF7108402082208A28432082B4
:102C400070BD70B504460D46484884420ED04848D1
:102C500084420BD04748844208D04748844205D07C
:102C60004648844202D04648844200D105E040F202
:102C7000E621AFF26430FDF71DFB0DB1012D00D14F
:102C800005E040F2E721AFF27830FDF713FB25B104
:102C9000208A40F48040208204E0208A4BF6FF71B5
:102CA0000840208270BD10B50446304884420ED0E2
:102CB0002F4884420BD02F48844208D02E488442AB
:102CC00005D02E48844202D02D48844200D105E030
:102CD00040F2FE21AFF2C830FDF7ECFAA08940F0D7
:102CE0000100A08110BD70B504460D461F48844206
:102CF0000ED01F4884420BD01E48844208D01E4884
:102D0000844205D01D48844202D01D48844200D12F
:102D100005E040F23331AFF20840FDF7CBFA0DB1D8
:102D2000012D00D105E04FF44D71AFF21C40FDF7CD
:102D3000C1FA25B1A08A40F00800A08204E0A08A70
:102D40004FF6F7710840A08270BD70B504460D467D
:102D50000648844208D00648844205D0054884428B
:102D600002D0074884420DD112E00000001001405B
:102D70000044004000480040004C0040005000402B
:102D8000001401404FF46271AFF27C40FDF792FAFB
:102D9000208BC0B22083208B40EA0520208370BDA9
:102DA00070B504460D46F948844208D0F84884427C
:102DB00005D0F848844202D0F748844200D105E0AB
:102DC00040F29B31AFF2B840FDF774FA0DB1012D1E
:102DD00000D105E04FF46771AFF2CC40FDF76AFA1D
:102DE00025B1A08A40F02000A08204E0A08A4FF61E
:102DF000DF710840A08270BD70B504460D46E348FF
:102E0000844208D0E248844205D0E248844202D09D
:102E1000E148844200D105E04FF46D71AFF21050EB
:102E2000FDF748FA0DB1012D00D105E040F2B531B2
:102E3000AFF22450FDF73EFA25B1A08A40F0100011
:102E4000A08204E0A08A4FF6EF710840A08270BD16
:102E500070B504460D46CD4884420ED0CC4884421D
:102E60000BD0CC48844208D0CC48844205D0CC4812
:102E7000844202D0C848844200D105E040F2FB31D0
:102E8000AFF27450FDF716FA042D00D005B905E035
:102E90004FF47F71AFF28850FDF70CFAA08A4FF61D
:102EA000FB710840A082A08A2843A08270BD70B543
:102EB00004460D46B54884420ED0B54884420BD036
:102EC000B448844208D0B548844205D0B44884420E
:102ED00002D0B148844200D105E040F20D41AFF28A
:102EE000D050FDF7E7F90DB1012D00D105E040F21A
:102EF0000E41AFF2E450FDF7DDF925B1A08A40F0B4
:102F00000200A08204E0A08A4FF6FD710840A08272
:102F100070BD70B504460D4616469C4884420ED0DE
:102F20009B4884420BD09B48844208D09B488442F3
:102F300005D09B48844202D09748844200D105E0E6
:102F400040F23B41AFF23860FDF7B4F94FF63F7005
:102F5000284008B905B105E040F23C41AFF25060AD
:102F6000FDF7A8F90EB1012E00D105E040F23D4178
:102F7000AFF26460FDF79EF91EB1A08A2843A082DB
:102F800002E0A08AA843A08270BD2DE9F047044664
:102F90000D4617464FF00008C246C14600267B4842
:102FA00084420ED07A4884420BD07A48844208D0BA
:102FB0007A48844205D07A48844202D076488442D6
:102FC00000D105E040F2BD41AFF2BC60FDF772F9FF
:102FD000282D19D040F22770854215D040F2266086
:102FE000854211D040F2255085420DD040F2244058
:102FF000854209D040F64600854205D040F66A1069
:10300000854201D0602D00D105E040F2BE41AFF213
:103010000070FDF74FF90FB1012F00D105E040F22C
:10302000BF41AFF21470FDF745F940F66A108542D2
:1030300012D15648844208D05548844205D055489C
:10304000844202D05448844200D105E040F2C44199
:10305000AFF24470FDF72EF92646C5F3421805F08D
:103060001F0A012000FA0AF9B8F1010F01D10C364C
:1030700005E0B8F1020F01D1103600E0143627B197
:10308000306840EA0900306003E0306820EA090057
:103090003060BDE8F08770B505460C4600263B4819
:1030A00085420ED03A4885420BD03A48854208D036
:1030B0003A48854205D03A48854202D03648854292
:1030C00000D105E040F2FC41AFF2BC70FDF7F2F830
:1030D000012C13D0802C11D0402C0FD0202C0DD0DF
:1030E000102C0BD0B4F5807F08D0B4F5007F05D04C
:1030F000082C03D0042C01D0022C00D105E040F2B2
:10310000FD41AFF2F470FDF7D5F8B4F5007F12D1B0
:103110001E48854208D01E48854205D01D4885427C
:1031200002D01D48854200D105E040F20251AFF6C1
:103130002000FDF7BFF82888204008B1012600E0F4
:103140000026304670BD70B504460D460F488442D7
:103150000ED00F4884420BD00E48844208D00F484E
:10316000844205D00E48844202D00B48844200D1EC
:1031700005E040F22C51AFF66800FDF79BF84FF6E2
:103180009F40284070B96DB112E00000001001406E
:10319000004400400048004000140140004C004042
:1031A0000050004040F22D51AFF69C00FDF782F830
:1031B00005F40070B0F5007F12D17C48844208D03D
:1031C0007B48844205D07B48844202D07A488442BE
:1031D00000D105E040F23251AFF6CC00FDF76AF8BD
:1031E000E843208070BD2DE9F04705460C460027D6
:1031F0000026B046B1466D4885420ED06C488542E7
:103200000BD06C48854208D06C48854205D06C488C
:10321000854202D06848854200D105E04FF4AA619A
:10322000AFF61410FDF746F8282C27D040F227708F
:10323000844223D040F2266084421FD040F22550C1
:1032400084421BD040F22440844217D040F646000E
:10325000844213D040F66A1084420FD0B4F5587FF0
:103260000CD040F22530844208D0B4F5587F05D008
:10327000B4F5187F02D0B4F5B07F00D105E040F27C
:103280005151AFF67410FDF715F840F66A108442FC
:1032900012D14648854208D04548854205D0454868
:1032A000854202D04448854200D105E040F25651A3
:1032B000AFF6A410FCF7FEFFC4F3421804F01F069B
:1032C000012000FA06F6B8F1010F02D1A8890640E4
:1032D00007E0B8F1020F02D1288A064001E0A88A6F
:1032E00006402712012000FA07F7288807401EB180
:1032F00017B14FF0010901E04FF000094846BDE861
:10330000F0872DE9F04104460D46002600272748A6
:1033100084420ED0264884420BD02648844208D0EE
:103320002648844205D02648844202D0224884425E
:1033300000D105E040F29951AFF62C20FCF7BAFF1E
:1033400040F2266085420BD040F22550854207D0DE
:1033500040F64600854203D040F66A10854200D10F
:1033600005E040F29A51AFF65820FCF7A3FF40F673
:103370006A10854212D10D48844208D00C4884421C
:1033800005D00C48844202D00B48844200D105E0AD
:1033900040F29F51AFF68820FCF78CFF2E120120DF
:1033A000B04087B2F8432080BDE8F08100100140B2
:1033B000004400400048004000140140004C004020
:1033C000005000400948804709480047FEE7FEE7F3
:1033D000FEE7FEE7FEE7FEE7FEE7FEE7FEE7FEE7C5
:1033E00004480549054A064B704700005D0B00087C
:1033F0008901000890180020901E0020901A0020DB
:10340000901A0020704717480068704770B504464E
:1034100003F0A6FF054613480460284603F0A4FF06
:1034200070BD10B50F480068401C0E49086003F0DD
:1034300096FA0446A06C401EA064A06C18B9606C9B
:10344000A06403F04AFB03F02AFE10BD014664228B
:1034500001FB02F000F2E7304FF47A72B0FBF2F0B9
:10346000704700003C0000202DE9F041064603F0C3
:1034700076FA08B103F035F9A34D6C6810E0A4F1B9
:103480000C0708223146384601F087FE38B903F0B0
:1034900066FA08B103F033F93846BDE8F0812468D4
:1034A000281D8442EBD103F05AFA08B103F027F942
:1034B0000020F2E770B504460D46164614B94FF0E9
:1034C000FF3070BD2846FFF7CFFF10B14FF0FF303F
:1034D000F7E72A460721204602F0C5FEE6820020D3
:1034E000A076208300BFECE710B5044624B948223B
:1034F000864987A002F0CFF9204602F0DAFE0020CC
:1035000010BD0020704770B50446002524B99522EF
:1035100083497FA002F0BFF9606A90B1A07D00F0FE
:10352000100070B92046616A884705462DB12A46C9
:1035300021467CA002F0D3F803E0E08A40F01000BE
:10354000E082284670BD70B504460E46002524B9B9
:10355000B82282496EA002F09EF9A07D00F0100012
:1035600088B9606A58B12046616A8847054635B116
:103570002A4621466BA002F0B2F8284670BDE08AC8
:1035800040F01000E082A07D00F0080030B1207E05
:1035900000F0080010B16FF00600EFE7A06A20B15C
:1035A00031462046A26A904705460DB1A81D60B974
:1035B00046F008002083A07E401CA076A07E20B9A3
:1035C000E122664966A002F066F92846D6E770B5A2
:1035D0000446002524B9F32266494DA002F05BF9A8
:1035E000A07E10B94FF0FF3070BDA07E401EA076C7
:1035F000A07E08B10020F7E7E06A18B12046E16A32
:10360000884705460DB1A81D08B90020208328462B
:10361000EAE72DE9F04104460D4616461F462CB94F
:103620004FF48E7254493AA002F035F9A07E30B9B9
:103630004FF0FF3001F0A2FC0020BDE8F081206BCC
:1036400038B13B46324629462046D4F830C0E047E0
:10365000F3E76FF0050001F091FC0020EDE72DE9A4
:10366000F04104460D4616461F462CB94FF4A17290
:10367000424927A002F00FF9A07E30B94FF0FF3089
:1036800001F07CFC0020BDE8F081606B38B13B4666
:10369000324629462046D4F834C0E047F3E76FF0BD
:1036A000050001F06BFC0020EDE770B504460D4607
:1036B00016462CB94FF4B172314915A002F0EBF85F
:1036C000A06B28B1324629462046A36B984770BDAF
:1036D0000020FCE770B504460D462CB940F27B1281
:1036E00028490BA002F0D7F8E561002070BD70B545
:1036F00004460D462CB94FF4C872234904A002F0C9
:10370000CAF82562002070BDE4000020A4DC000897
:1037100064657620213D2052545F4E554C4C00008C
:10372000B9DC0008546F20696E697469616C697A4C
:1037300065206465766963653A2573206661696C06
:1037400065642E20546865206572726F7220636F05
:1037500064652069732025640A000000C8DC000845
:103760006465762D3E7265665F636F756E742021A9
:103770003D203000D7DC0008E7DC0008F6DC00085C
:1037800006DD000818DD000832DD00083A4908604F
:10379000704770B544E000BF03F0E2FD064601F05B
:1037A000D7FB40B1354936A001F099FF5E2233497D
:1037B0003CA002F070F8304603F0D6FD00BF03F0E5
:1037C000CFFD054600F04FF8E0B137480068A0F1A2
:1037D000140404F11400D0E900215160D0E9001272
:1037E00011604060006000BFA06F10B12046A16F63
:1037F0008847204602F0E5FD012807D1284603F05E
:10380000B3FD70BD284603F0AFFDFAE7284603F08C
:10381000ABFDA06A02F088FA204602F0A8FD00BFC6
:1038200000F021F80028B6D100BFEAE707E012480F
:10383000006810B1104800688047FFF7AAFFF6E75C
:103840001FB520201F214201184BCDE90032CDE9E0
:1038500002100023164A17A1184803F05BF8174816
:1038600003F0A7F81FBD10490868884201D0012065
:1038700070470020FCE70000400000204CDD0008FD
:1038800046756E6374696F6E5B25735D2073686146
:103890006C6C206E6F74207573656420696E2049AE
:1038A00053520A003000000028010020C805002003
:1038B0002D3800087469646C65000000480500201C
:1038C0004268116042684A604160086070472DE9B3
:1038D000F04105460C469046204603F02AF9B8F11F
:1038E000000F03D0B8F1010F23D105E004F114015A
:1038F0002846FFF7E5FF1CE02E680FE0A6F114074D
:1039000094F8350097F83510884206DA04F114016E
:1039100007F11400FFF7D4FF02E03668AE42EDD1A4
:1039200000BFAE4204D104F114012846FFF7C8FFDE
:1039300000BF00BF0020BDE8F08170B505460EE075
:1039400003F00EFD06462868A0F114044FF0FF3086
:103950002063204603F006F8304603F005FD2846B4
:1039600001F0B0FA0028EBD0002070BD2DE9F04145
:1039700004460D4616461F4624B9D822FD49FEA02E
:1039800001F089FF2A460121204602F06CFC204606
:1039900001F0A0FAA68367720020BDE8F08110B59F
:1039A000044624B9F522F849F3A001F074FF04F1AC
:1039B0001400FFF7C2FF204602F07BFC002010BD80
:1039C0002DE9F04105460E46174600BF03F0C8FC3E
:1039D000804601F0BDFA48B1EC49EDA001F07FFE50
:1039E00040F21112E949F3A001F055FF404603F0FF
:1039F000BBFC00BF2946012002F077FC044614B945
:103A00002046BDE8F081204601F064FAA683677283
:103A10002046F6E770B5044600BF03F0A1FC05465A
:103A200001F096FA48B1E449D9A001F058FE4FF4EC
:103A30009872E149DFA001F02EFF284603F094FCC4
:103A400000BF2CB94FF49972DB49CBA001F023FFE2
:103A500004F11400FFF771FF204602F088FC0020FB
:103A600070BD2DE9F34105462DB940F24D12D34901
:103A7000C1A001F010FF00BFD148006818B128466E
:103A8000CF490968884700BF03F06AFC064600BFBB
:103A900000BFA88B002806DDA88B401EA8833046F7
:103AA00003F062FC57E0019830B9304603F05CFC4B
:103AB0006FF00100BDE8FC8100BF03F051FC074638
:103AC00002F04DFF48B9BD49BEA001F008FE40F22A
:103AD0006D12BA49B7A001F0DEFE00BF03F040FC52
:103AE000804601F035FA48B1B449A9A001F0F7FDCC
:103AF00040F26D12B149AFA001F0CDFE404603F097
:103B000033FC00BF384603F02FFC00BF02F027FF54
:103B100004460020206300BF00BF6A7A214605F1F9
:103B20001400FFF7D4FE019800280BDD00BF00BF92
:103B300001AA002104F14C0003F08BFA04F14C00BF
:103B400003F0CDF9304603F00FFC02F02FFD206B9F
:103B500008B1206BAEE700BFA848006818B128463E
:103B6000A6490968884700BF0020A3E710B50446AE
:103B700000212046FFF775FF10BD70B5044600BF59
:103B80009F48006818B120469D490968884700BFD2
:103B9000002503F0E5FB064600BF00BF04F114005A
:103BA00001F090F928B904F1140001F09BF9012506
:103BB00002E0A08B401CA083304603F0D5FB012D12
:103BC00001D102F0F3FC002070BD2DE9F041044664
:103BD0000E4615462CB94FF4F2728A4966A001F0E0
:103BE0005AFE012E10D12F4603F0BAFB804604F195
:103BF0001400FFF7A2FEA783404603F0B5FB02F0D6
:103C0000D5FC0020BDE8F0814FF0FF30FAE770B539
:103C100004460D4616462CB940F20F227A497BA085
:103C200001F039FE2A460221204602F01CFB204604
:103C300001F050F90120A08300202062FF20A0772E
:103C40000020E077667270BD10B504462CB940F2D2
:103C50002E2273496DA001F01EFE04F11400FFF73F
:103C60006CFE204602F025FB002010BD2DE9F0413E
:103C700005460E4600BF03F073FB074601F068F9E6
:103C800048B1684942A001F02AFD40F24922654945
:103C900048A001F000FE384603F066FB00BF29464D
:103CA000022002F022FB044614B92046BDE8F08150
:103CB000204601F00FF90120A08300202062FF20A0
:103CC000A0770020E07766722046EFE770B50446E3
:103CD00000BF03F045FB054601F03AF948B15249EF
:103CE0002BA001F0FCFC40F26A224F4931A001F008
:103CF000D2FD284603F038FB00BF2CB94FF41B72ED
:103D0000494942A001F0C7FD04F11400FFF715FE78
:103D1000204602F02CFB002070BD2DE9F341044643
:103D200000BF03F01DFB074602F019FE48B93F49EA
:103D300024A001F0D4FC4FF422723C491DA001F0F4
:103D4000AAFD00BF03F00CFB804601F001F948B169
:103D500036490FA001F0C3FC4FF42272334915A07D
:103D600001F099FD404603F0FFFA00BF384603F02A
:103D7000FBFA5DE062DD000873656D20213D205295
:103D8000545F4E554C4C00006EDD00087CDD000891
:103D900046756E6374696F6E5B25735D2073686131
:103DA0006C6C206E6F74207573656420696E204999
:103DB00053520A00300000008ADD000898DD000838
:103DC0000C01002046756E6374696F6E5B25735D30
:103DD000207368616C6C206E6F742062652075734F
:103DE0006564206265666F726520736368656475DB
:103DF0006C65722073746172740A000010010020F7
:103E000014010020A4DD0008B3DD00086D757465A1
:103E10007820213D2052545F4E554C4C000000004C
:103E2000C1DD0008D1DD0008E1DD0008F1DD00089A
:103E300000BF34B940F28A22FE49AFF2300001F0EF
:103E40002AFD03F08DFA064602F089FD054600BF03
:103E5000F948006818B12046F7490968884700BF4B
:103E600000BF00BF00202863206AA84203D1E07F82
:103E7000401CE07749E0A08B00280ADDA08B401EA3
:103E8000A083256295F83500A077E07F401CE0779D
:103E90003BE0019848B96FF001002863304603F019
:103EA00063FA6FF00100BDE8FC8100BF00BF95F828
:103EB0003500216A91F83510884205DA05F135029E
:103EC0000221206A02F0EAFE627A294604F1140017
:103ED000FFF7FDFC019800280BDD00BF00BF01AA21
:103EE000002105F14C0003F0B4F805F14C0002F09C
:103EF000F6FF304603F038FA02F058FB286B08B1A1
:103F0000286BD0E703F02CFA0646304603F02CFA73
:103F100000BFCA48006818B12046C84909688847E8
:103F200000BF0020BFE72DE9F0470446002600BF90
:103F300003F016FA804602F012FD58B9C049AFF2FC
:103F40007C1001F0CCFB40F20D32BD49AFF29C1069
:103F500001F0A1FC00BF03F003FA814600F0F8FF76
:103F600058B1B749AFF2D81001F0B9FB40F20D32A9
:103F7000B349AFF2C01001F08EFC484603F0F4F9EB
:103F800000BF404603F0F0F900BF02F0E8FC054630
:103F900003F0E6F9074600BF00BF00BFA94800686C
:103FA00018B12046A7490968884700BF206AA8427F
:103FB00009D04FF0FF302863384603F0D5F94FF0B1
:103FC000FF30BDE8F087E07F401EE077E07F08BB70
:103FD000A07F216A91F83510884205D004F11E02B5
:103FE0000221206A02F05AFE04F1140000F06AFF78
:103FF00088B96069A0F1140500BF00BF256295F87B
:104000003500A077E07F401CE07704F1140000F059
:1040100069FF012606E0A08B401CA08300202062DF
:10402000FF20A077384603F09FF9012E01D102F05E
:10403000BDFA0020C5E703464FF0FF30704770B56A
:1040400004460D4616462CB940F27B327E497FA0CD
:1040500001F021FC2A460321204602F004F9667291
:10406000204600F037FF0020E06170BD10B5044627
:104070002CB940F297327A4974A001F00CFC04F19B
:104080001400FFF75AFC204602F013F9002010BD7F
:104090002DE9F04105460E4600BF03F061F90746E1
:1040A00000F056FF58B16F49AFF21C3001F017FB1A
:1040B0004FF46C726B49AFF2043001F0ECFB384600
:1040C00003F052F900BF2946032002F00EF904461E
:1040D00014B92046BDE8F0816672204600F0FAFE71
:1040E0000020E0612046F5E770B504462CB940F2A7
:1040F000CE325D4955A001F0CEFB00BF03F030F990
:10410000054600F025FF58B15749AFF27C3001F069
:10411000E6FA4FF474725449AFF2683001F0BBFB19
:10412000284603F021F900BF04F11400FFF705FC55
:10413000204602F01CF9002070BD2DE9F04704462E
:104140000F462CB940F2EF32484940A001F0A3FBE2
:104150001FB94FF0FF30BDE8F0874FF0000800BFF7
:104160003848006818B1204636490968884700BFBA
:1041700003F0F6F88246E0693843E06104F1140088
:1041800000F0A0FEC0BB666932E0A6F114054FF056
:10419000FF3995F8400000F0010040B1E86BE1699B
:1041A0000840E96B884211D14FF000090EE095F804
:1041B000400000F0020048B1E86BE169084028B116
:1041C000E86BE1690840E8634FF000093668B9F12F
:1041D000000F0DD195F8400000F0040018B1E0691F
:1041E000E96B8843E061284602F0BCFB4FF0010810
:1041F00004F114008642C8D1504603F0B5F8B8F176
:10420000010F01D102F0D2F90020A4E72DE9FF4F00
:1042100081B005460E461746DDF8388000BF03F032
:104220009FF8009002F09BFB18B91149AFF26C4067
:1042300020E028E0F1DD00080C0100201001002042
:10424000FFDD00081401002010DE00086576656EB1
:104250007420213D2052545F4E554C4C000000000C
:104260001EDE00082EDE00083EDE00084EDE0008DE
:104270005CDE000801F033FA40F24F42FC49AFF235
:10428000CC4001F008FB00BF03F06AF8834600F061
:104290005FFE58B1F649AFF2085001F020FA40F243
:1042A0004F42F349AFF2F44001F0F5FA584603F0FB
:1042B0005BF800BF009803F057F800BF35B940F233
:1042C0005242EB49AFF27C0001F0E5FA26B94FF01B
:1042D000FF3005B0BDE8F08F4FF0FF3902F03FFB33
:1042E00004460021216300BFE248006818B1284657
:1042F000E0490968884700BF03F032F8824607F0BA
:10430000010030B1E8693040B04212D14FF00009ED
:104310000FE007F0020028B1E869304048B14FF0E3
:10432000000906E04FF48E62D149AFF2785001F0F7
:10433000B2FAB9F1000F0DD1B8F1000F03D0E8695E
:104340003040C8F8000007F0040088B3E869B043C3
:10435000E8612DE0049818B96FF00100206327E0B0
:10436000E66384F840706A7A214605F11400FFF78D
:10437000AEFA0498002809DD04AA002104F14C00DB
:1043800002F067FE04F14C0002F0A9FD504602F075
:10439000EBFF02F00BF9206B08B1206B99E702F0FC
:1043A000DFFF8246B8F1000F02D0E06BC8F80000D2
:1043B000504602F0D9FF00BFAF48006818B1284648
:1043C000AD490968884700BF206B82E72DE9F041BD
:1043D00004460D46174634B94FF49862A749AFF228
:1043E000941001F058FA012D10D102F0B9FF0646E1
:1043F00004F11400FFF7A1FA0020E061304602F05A
:10440000B3FF02F0D3F80020BDE8F0814FF0FF3099
:10441000FAE72DE9F04104460D4616461F46DDF841
:1044200018802CB940F2ED42954996A001F033FA7C
:104430002A460421204601F016FF84F80980204610
:1044400000F048FDE661278400206084A084E084B9
:1044500004F1280000F033FD0020BDE8F08110B524
:1044600004462CB94FF4A2628A4986A001F013FADF
:1044700004F11400FFF761FA04F12800FFF75DFA78
:10448000204601F016FF002010BD2DE9F041054641
:104490000E46174600BF02F063FF804600F058FD4D
:1044A00058B17D49AFF2187001F019F940F22C5261
:1044B0007949AFF2007001F0EEF9404602F054FF86
:1044C00000BF2946042001F010FF044614B920461D
:1044D000BDE8F0816772204600F0FCFC2684218C48
:1044E000880001F01DFBE061E06920B9204601F081
:1044F0003EFF0020ECE700206084A084E08404F10B
:10450000280000F0DCFC2046E2E770B5044600BF5E
:1045100002F026FF054600F01BFD58B15F49AFF2DF
:10452000907001F0DCF840F257525C49AFF27C70B9
:1045300001F0B1F9284602F017FF00BF2CB940F294
:104540005A5256494FA001F0A6F904F11400FFF7A2
:10455000F4F904F12800FFF7F0F9E06901F0E4FB59
:10456000204601F004FF002070BD2DE9F74F0446FE
:104570000F462CB940F28752494942A001F08BF90D
:10458000002602F0ECF9054600BF4648006818B165
:10459000204644490968884700BF02F0E1FE804692
:1045A000608C218C884208D1029830B9404602F0D4
:1045B000DBFE6FF00200BDE8FE8F86E0002028637E
:1045C000029828B9404602F0CFFE6FF00200F2E7F1
:1045D00000BF02F0C5FE814602F0C1F958B930496A
:1045E000AFF6200001F07BF840F2AA522C49AFF65A
:1045F0003C0001F050F900BF02F0B2FE824600F02C
:10460000A7FC58B12649AFF6780001F068F840F2EF
:10461000AA522349AFF6640001F03DF9504602F07A
:10462000A3FE00BF484602F09FFE00BF627A294603
:1046300004F12800FFF74BF9029800280EDDFEF781
:10464000E2FE064600BF00BF02AA002105F14C00B1
:1046500002F0FFFC05F14C0002F041FC404602F084
:1046600083FE01F0A3FF286BF0B1286BA3E70000E5
:104670005CDE00080C010020100100206ADE00084A
:104680007BDE00086D6220213D2052545F4E554C68
:104690004C00000086DE000893DE0008A0DE000863
:1046A000ADDE00081401002002F05AFE8046029898
:1046B00000280ADDFEF7A7FE861B0298801B0290E9
:1046C0000298002801DA00200290608C218C884238
:1046D0003FF474AFA18CE06940F82170A08C401CBD
:1046E000A084A08C218C884201DB0020A084608CF7
:1046F000401C608404F1140000F0E4FB50B904F1A4
:10470000140000F0EFFB404602F02EFE01F04EFFD9
:10471000002050E7404602F027FE00204BE770B52E
:1047200004460D46002229462046FFF71EFF70BDB5
:104730002DE9F74F04460F4634B94FF4C362FA49E6
:10474000AFF2C00001F0A7F8002602F008F9054614
:1047500000BFF648006818B12046F4490968884748
:1047600000BF02F0FDFD8046608C40B9029830B970
:10477000404602F0F9FD6FF00100BDE8FE8F6AE0EF
:1047800000202863029830B9404602F0EDFD6FF03A
:1047900001002863F1E700BF02F0E2FD814602F06C
:1047A000DEF858B9E049AFF6E41000F098FF40F2A7
:1047B0003D62DD49AFF6042001F06DF800BF02F064
:1047C000CFFD824600F0C4FB58B1D749AFF6402078
:1047D00000F085FF40F23D62D349AFF6282001F09A
:1047E0005AF8504602F0C0FD00BF484602F0BCFD3A
:1047F00000BF627A294604F11400FFF768F80298B6
:1048000000280EDDFEF7FFFD064600BF00BF02AA2E
:10481000002105F14C0002F01CFC05F14C0002F0F7
:104820005EFB404602F0A0FD01F0C0FE286B08B11F
:10483000286BA2E702F094FD8046029800280ADD6A
:10484000FEF7E1FD861B0298801B0290029800286B
:1048500001DA00200290608C002891D0E18CE069A0
:1048600050F821003860E08C401CE084E08C218C02
:10487000884201DB0020E084608C401E608404F1EB
:10488000280000F01FFB98B904F1280000F02AFB73
:10489000404602F069FD00BFA548006818B12046F7
:1048A000A3490968884700BF01F080FE002064E743
:1048B000404602F059FD00BF9D48006818B12046EF
:1048C0009B490968884700BF002056E72DE9F04161
:1048D00004460D46174634B940F29B629549AFF243
:1048E0005C2000F0D8FF012D16D102F039FD0646FC
:1048F00004F11400FFF721F804F12800FFF71DF878
:1049000000206084A084E084304602F02DFD01F098
:104910004DFE0020BDE8F0814FF0FF30FAE72DE9B1
:10492000F05F04460F4690469946DDE90AAB2CB984
:1049300040F2D762804981A000F0ADFF3A460521E0
:10494000204601F090FC84F809B0204600F0C2FA3D
:10495000C4F81C8009F1030020F003002084208C9F
:10496000001DBAFBF0F060840020A062E0622063CA
:10497000002508E0208C001DE16905FB0016206B76
:10498000306026636D1C608CA842F3DC0020A0849C
:10499000BDE8F09F10B504462CB94FF4E1626B49B5
:1049A00066A000F078FF04F11400FEF7C6FF204671
:1049B00001F07FFC002010BD70B5044600BF02F07E
:1049C000CFFC054600F0C4FA58B16149AFF640404B
:1049D00000F085FE40F262725D49AFF6284000F0BB
:1049E0005AFF284602F0C0FC00BF2CB940F26572A5
:1049F000574952A000F04FFF04F11400FEF79DFF4D
:104A0000E06901F091F9204601F0B1FC002070BD91
:104A10002DE9F05F0746884691469A4600BF02F0AE
:104A20009FFC834600F094FA58B14A49AFF6A04083
:104A300000F055FE4FF4E5624649AFF6884000F0BD
:104A40002AFF584602F090FC00BF3946052001F0CD
:104A50004CFC044614B92046BDE8F09F84F809A038
:104A6000204600F037FA08F1030020F0030020840C
:104A7000A4F82290218C091D628C01FB02F001F048
:104A80004FF8E061E06920B92046FFF795FF00206C
:104A9000E2E70020A062E0622063002508E0208CAD
:104AA000001DE16905FB0016206B306026636D1C5C
:104AB000608CA842F3DC0020A0842046CCE72DE9DE
:104AC000F04104460F4616462CB940F28B7222493B
:104AD0001AA000F0E0FE2FB940F28C721E491FA010
:104AE00000F0D9FE2EB940F28D721B4920A000F0D3
:104AF000D2FE208CB04203D24FF0FF30BDE8F081EF
:104B000000BF1E48006818B120461C490968884744
:104B100000BF02F025FC8046256B8DBB404602F0AD
:104B200023FC6FF00200E9E7BDDE00080C01002065
:104B300010010020C8DE0008D6DE00086D712021BB
:104B40003D2052545F4E554C4C000000E1DE000801
:104B5000FBDE0008EEDE000808DF0008627566660E
:104B6000657220213D2052545F4E554C4C00000090
:104B700073697A6520213D20300000001401002077
:104B8000FFE728682063404602F0EEFB0020286023
:104B900032463946281D00F036FA02F0E1FB804625
:104BA000E06A08B1E06A0560E562A06A00B9A56242
:104BB000A08C401CA08404F1140000F083F950B9CB
:104BC00004F1140000F08EF9404602F0CDFB01F034
:104BD000EDFC002092E7404602F0C6FB00208DE786
:104BE0002DE9F04104460F46164634B940F2E3720F
:104BF000C249AFF2B80000F04EFE37B940F2E4729D
:104C0000BE49AFF2A80000F046FE36B940F2E572A8
:104C1000BA49AFF2A40000F03EFE208CB04203D2AD
:104C20004FF0FF30BDE8F08100BFB548006818B113
:104C30002046B3490968884700BF02F091FB8046CF
:104C4000256B2DB9404602F08FFB6FF00200E9E7BB
:104C500028682063404602F087FB32463946281D0B
:104C600000F0D1F902F07CFB8046A06A2860A562C2
:104C7000E06A00B9E562A08C401CA08404F1140035
:104C800000F020F950B904F1140000F02BF940466F
:104C900002F06AFB01F08AFC0020C3E7404602F004
:104CA00063FB0020BEE72DE9FF4F81B004460F46AD
:104CB000904634B940F63B029249AFF2801000F0C2
:104CC000EAFD37B940F63C028E49AFF2701000F0B1
:104CD000E2FDB8F1000F06D140F63D028949AFF27E
:104CE000701000F0D8FD4FF0000901F038FE0546C5
:104CF00000BF8548006818B1204683490968884785
:104D000000BF02F02DFB8246A08C48B9049838B948
:104D1000504602F029FB6FF0010005B0BDE8F08FAE
:104D20006CE000BF02F01CFB009001F018FE58B9C7
:104D30007449AFF6707000F0D2FC40F6530271492E
:104D4000AFF2CC1000F0A7FD00BF02F009FB8346D4
:104D500000F0FEF858B16B49AFF6CC7000F0BFFC24
:104D600040F653026749AFF2F01000F094FD584648
:104D700002F0FAFA00BF009802F0F6FA00BF002035
:104D80002863049830B9504602F0EEFA6FF0010043
:104D90002863C2E7627A294604F11400FEF797FD02
:104DA000049800280EDDFEF72EFB814600BF00BFF1
:104DB00004AA002105F14C0002F04BF905F14C006A
:104DC00002F08DF8504602F0CFFA01F0EFFB286BAD
:104DD00008B1286BA1E702F0C3FA824604980028C4
:104DE0000CDDFEF710FBA0EB09090498A0EB09000D
:104DF00004900498002801DA00200490A08C002878
:104E00008FD0A66A3068A062E06AB04201D100206B
:104E1000E062A08C401EA084504602F0A5FA208CCF
:104E2000404501D2208C00E040460246311D384604
:104E300000F0E9F802F094FA8246206B30602663B5
:104E4000504602F091FA00BF3048006818B1204681
:104E50002E490968884700BF00205EE72DE9F04130
:104E600004460E46904634B940F6C1022849AFF2D6
:104E7000343000F010FD012E1ED102F071FA074609
:104E800004F11400FEF759FD0AE0A56A2868A06243
:104E9000E06AA84201D10020E062206B286025630F
:104EA000A06A0028F1D1A084384602F05DFA01F032
:104EB0007DFB0020BDE8F0814FF0FF30FAE7406055
:104EC0000060704701460868884201D101207047A0
:104ED0000020FCE710B5044604F11400FFF7EFFFD3
:104EE000002010BD70B504462068A0F1140500BF75
:104EF00000BF284601F036FD002070BD13DF00081A
:104F00001401002020DF00080C0100201001002007
:104F10002BDF000810B500BF00BF02F021FA0446E5
:104F20000D480078401C0C490870204602F01CFA1D
:104F300010BD10B500BF00BF02F012FA04460648CB
:104F40000078401E04490870204602F00DFA10BD9A
:104F500001480078704700004400002010B5FFF7BA
:104F6000F7FF10B1FA48006810BD01F0F8FC0446E4
:104F700014B9F7480068F7E7206BF5E770B5044609
:104F8000FFF7E6FF10B1F248046070BD01F0E7FCE6
:104F9000054615B9EE480460F7E72C6300BFF4E757
:104FA00010B5FFF7D5FF08B1E94810BD01F0D7FCF7
:104FB000044614B104F13000F7E7E548F5E7F0B531
:104FC0000C460546E6B2042A15D300F0030797B94C
:104FD000014646EA062343EA034304E008C108C148
:104FE00008C108C1103A102AF8D201E008C1121F06
:104FF000042AFBD20D4601E005F8016B171EA2F151
:105000000102F9D1F0BD2DE9F0410F4616460446E4
:105010003D463346102B28D305F0030C04F003085B
:105020004CEA080CBCF1000F1FD121462A4610E0C3
:1050300052F804CB41F804CB52F804CB41F804CB2E
:1050400052F804CB41F804CB52F804CB41F804CB1E
:10505000103B102BECD204E052F804CB41F804CB07
:105060001B1F042BF8D20C46154603E015F801CBA4
:1050700004F801CBB3F1000CA3F10103F6D1BDE8B4
:10508000F08170B50C46014623468B4210D29D1824
:105090008D420DD91144134405E05D1E2B462E7838
:1050A0004D1E29462E70151EA2F10102F5D108E011
:1050B00003E013F8015B01F8015B151EA2F1010288
:1050C000F7D170BDF0B5034600201C460D4608E040
:1050D00026782F78F61B301E00D004E0641C6D1C6F
:1050E000521E002AF4D800BFF0BD01460A4600E077
:1050F000521C10780028FBD1501A7047F0B50646B4
:105100000F463846FFF7F1FF05460DB93046F0BDB2
:105110003046FFF7EAFF044609E0641E2A46394696
:105120003046FFF7CFFF08B93046F0E7761CAC42B7
:10513000F3DA0020EBE730B503460C4600BF13F866
:10514000011B14F8012B412902DB5A2900DC203114
:10515000412A02DB5A2A00DC2032914201D1002987
:10516000EDD1881A30BD70B50346A2B118460C4681
:1051700000BF14F8016B00F8016B3EB902E0002596
:1051800000F8015B551E2A1EF9D102E0551E2A1EA9
:10519000EFD100BF00BF184670BD30B503460020F8
:1051A0000BE011F8015B1C78641B64B2201E02D175
:1051B00013F8015B05B902E0521E002AF1D100BFCD
:1051C00030BD024601E0521C491C107818B110781D
:1051D0000B789842F7D010780B78C01A704770B5EA
:1051E00004462046FFF781FF451C284600F098FC46
:1051F00006460EB9002070BD2A4621463046FFF70C
:1052000002FF3046F7E770472DE9F04F85B00D46B5
:105210009C46DDE90F740E9B04F04008B8F1000FC6
:1052200002D0DFF8308101E0DFF82C81CDF800807A
:1052300004F01008B8F1000F01D024F0010404F0CC
:105240000108B8F1000F02D04FF0300801E04FF034
:105250002008C246002604F00208B8F1000F11D061
:10526000002A02DA2D2652420CE004F00408B8F1BC
:10527000000F01D02B2605E004F00808B8F1000F5C
:1052800000D02026002142B94FF0300B8846491C3F
:105290000DF1040909F808B01DE01AE0E146B9F182
:1052A0000A0F08D14FF00A0BB2FBFBFE0BFB1E28C6
:1052B000B2FBFBF202E002F00F08120900BFDDF8BA
:1052C000009019F808B08846491C0DF1040909F846
:1052D00008B0002AE2D1B94200DD0F46DB1B04F022
:1052E0001108B8F1000F10D116B1002B00DD5B1EC4
:1052F00006E0A84203D84FF0200880F80080401C48
:10530000B3F10008A3F10103F3DC26B1A84201D8F0
:1053100006705B1E401C04F01008B8F1000F0AD1A3
:1053200004E0A84201D880F800A0401CB3F10008B6
:10533000A3F10103F5DC06E0A84203D84FF03008E2
:1053400080F80080401CB8467F1E8845F4DC0EE0E3
:10535000480000204AE0000839E00008A84205D8CB
:105360000DF1040818F8018080F80080401CB1F1AC
:105370000008A1F10101F1DC06E0A84203D84FF0DA
:10538000200880F80080401CB3F10008A3F101035D
:10539000F3DC05B0BDE8F08F0146002009E00B68A2
:1053A0005A1C0A601A7800EB800302EB4302A2F158
:1053B00030000A681278303A0A2AF0D370472DE993
:1053C000FF4F89B0804644460A984044461E4645F1
:1053D00004D24FF0FF36A6EB08000A906FE10B985D
:1053E0000078252806D0B44202D80B9800782070A7
:1053F000641C61E1002526E00B98401C0B900B9883
:1054000000782D2802D145F010051CE00B9800789B
:105410002B2802D145F0040515E00B9800782028D0
:1054200002D145F008050EE00B980078232802D140
:1054300045F0200507E00B980078302802D145F0B0
:10544000010500E000E0D7E700BF4FF0FF370B9801
:10545000007830380A2804D20BA8FFF79DFF0746D2
:105460000EE00B9800782A280AD10B98401C0B906C
:105470000C9880C80C90002F02DA7F4245F010058E
:105480004FF0FF390B9800782E281CD10B98401C48
:105490000B900B98007830380A2804D20BA8FFF73D
:1054A0007BFF81460AE00B9800782A2806D10B98EA
:1054B000401C0B900C9850F8049B0C90B9F1000F15
:1054C00001DA4FF00009002004900B98007868285A
:1054D00003D00B9800786C2805D10B9800780490C5
:1054E0000B98401C0B900A2005900B9800786F28B1
:1054F00075D00CDC632813D004DC252870D0582824
:105500006FD18DE064286DD06928F9D18FE07028C3
:105510006AD0732825D0752878D07828F0D182E019
:1055200005F0100040B904E0B44201D820202070FA
:10553000641C781E071EF7DC0C9810F8041B0C90F6
:10554000C8B20790B44201D807982070641C04E0E8
:10555000B44201D820202070641C781E071EF7DC9E
:10556000AAE00C98006806900C98001D0C90069814
:1055700008B9D7A006900698FFF7B7FD8346B9F1A2
:10558000000F02DDCB4500DDCB4605F0100048B929
:1055900004E0B44201D820202070641C38467F1EED
:1055A0005845F6DC002008900BE0B44202D806987B
:1055B00000782070641C0698401C06900898401CD7
:1055C000089008985845F0DB04E0B44201D8202048
:1055D0002070641C38467F1E5845F6DC6CE01CE0E9
:1055E00015E028E022E0FFE7781C10B9082745F015
:1055F0000105CDE9007902950C9804C810233146C5
:105600000C902046FFF700FE044655E012E0B4423D
:1056100001D825202070641C4EE0082005901DE074
:1056200045F0400500BF1020059017E000BF45F091
:10563000020500BF12E0B44201D825202070641C8E
:105640000B98007830B1B44202D80B9800782070E3
:10565000641C02E00B98401E0B902DE000BF0498E4
:105660006C2807D10C9850F804AB0C9005F00200A0
:10567000B8B116E0049868280BD10C9830F8041BD8
:105680001FFA81FA0C9005F0020050B10FFA8AFA65
:1056900007E00C9850F804AB0C9005F0020000B144
:1056A00000BFCDE900790295524631462046059B60
:1056B000FFF7AAFD044600BF0B98401C0B900B9807
:1056C000007800287FF48BAEB44201D8207001E04E
:1056D00000203070A4EB08000DB0BDE8F08F0FB4CF
:1056E00038B505A800907F217B48009B049AFFF7FE
:1056F00066FE04467F2C00D97F247848006818B9DC
:105700007548FFF780FD15E074480068058B734805
:105710000068008B40F04000704909680883234608
:105720006D4A00216D480068FDF799FF6B480068DD
:10573000058300BF0020009038BC5DF814FB08B55D
:1057400067A0FFF7CCFF69A0FFF7C9FF70A0002397
:1057500001220221009071A0FFF7C1FF77A0FFF79F
:10576000BEFF08BD0FB4F8B504460D4609A8009069
:1057700029462046009B089AFFF721FE0646002096
:1057800000903046F8BC5DF814FB37B505460C4672
:1057900022464FF0FF312846029BFFF710FE3EBD28
:1057A0000FB438B5044606A800902046009A059923
:1057B000FFF7EBFF054600200090284638BC5DF857
:1057C00014FB46480068704770B5054643480668B4
:1057D0002846FDF749FE044664B14048006818B108
:1057E0003E480068FDF7F3FE43212046FDF7ABFE7F
:1057F0003A480460304670BD2DE9F04107460C463A
:10580000E01C20F00304F81C20F0030000EB040867
:10581000404600F085F9054665B1601E284008B98C
:105820002E1904E0601E2844611E20EA010646F895
:10583000045C35462846BDE8F08170B5044654F84E
:10584000045C284600F070FA70BD014609B90020DA
:105850007047C8B220B1C8B2434A105C401CF7E799
:1058600001F47F4028B14048C1F30722805C093031
:10587000EEE701F47F0028B13B48C1F30742805CAA
:105880001130E5E7384800EB116000781930DFE7A8
:10589000364908607047F8B504460D4616460020A4
:1058A00000903248006858B933462A46214630A055
:1058B000FFF715FF00BF9DF800000028FBD005E0B2
:1058C000324629462046294B1B689847F8BD000000
:1058D000284E554C4C290000C80900204C000020DF
:1058E0000A205C207C202F0A000000002D2052544A
:1058F000202D2020202020546872656164204F7084
:1059000065726174696E672053797374656D0A00FE
:105910004D6172203233203230313700202F207C0D
:10592000205C202020202025642E25642E25642044
:105930006275696C642025730A00000020323030E3
:1059400036202D203230313620436F7079726967EE
:1059500068742062792072742D74687265616420A5
:105960007465616D0A00000039DF000850000020F6
:105970002825732920617373657274696F6E2066C0
:1059800061696C65642061742066756E6374696F0B
:105990006E3A25732C206C696E65206E756D62659C
:1059A000723A2564200A0000F04908607047F04907
:1059B0000860704770B50446EE480068844204D21F
:1059C0008D22ED49EDA0FFF766FFF44800688442A0
:1059D00004D38E22E849F2A0FFF75DFF608820B172
:1059E0008F22E549F9A0FFF756FFE2496068096890
:1059F0004518AC4215D0688898B9E84800688542D7
:105A00000FD0F6480068A84201D1F44804606868E5
:105A10006060D8480068201AD64A69681268114444
:105A20008860D449A06809684618A64211D07088D9
:105A300078B9EA480068A04201D1E8480660606889
:105A40007060CC480068301ACA4A61681268114414
:105A5000886070BD2DE9F04705460E46E81C20F031
:105A6000030726F0030800BF01F07AFC8146FFF728
:105A70006FFA40B1DA49DBA0FFF731FEBE22D84908
:105A8000E1A0FFF708FF484601F06EFC00BFB8F147
:105A9000180F09D9A8F11800B84205D3A8EB0700E0
:105AA0001838DA49086006E032462946D8A0FFF7E0
:105AB00016FEBDE8F087AF48076000BF00BF04686E
:105AC0004FF4F5502080D14800680C306060002011
:105AD000A0606080A749606809680844AF49086011
